:020000040000fa
:080000000002040000000000f2
:020000040000fa
:040008007004000080
:020000040000fa
:04000c00700400007c
:020000040000fa
:040010007004000078
:020000040000fa
:040014007004000074
:020000040000fa
:040018007004000070
:020000040000fa
:04001c00700400006c
:020000040000fa
:040020007004000068
:020000040000fa
:040024007004000064
:020000040000fa
:040028007004000060
:020000040000fa
:04002c0028040000a4
:020000040000fa
:040030007004000058
:020000040000fa
:040034007004000054
:020000040000fa
:040038007004000050
:020000040000fa
:04003c00700400004c
:020000040000fa
:040040007004000048
:020000040000fa
:040044007004000044
:020000040000fa
:040048007004000040
:020000040000fa
:04004c00700400003c
:020000040000fa
:040050007004000038
:020000040000fa
:04005400060400009e
:020000040000fa
:04005800ca030000d7
:020000040000fa
:04005c00700400002c
:020000040000fa
:040060007004000028
:020000040000fa
:040064007004000024
:020000040000fa
:040068007004000020
:020000040000fa
:04006c00700400001c
:020000040000fa
:040070007004000018
:020000040000fa
:040074007004000014
:020000040000fa
:040078007004000010
:020000040000fa
:04007c00700400000c
:020000040000fa
:040080007004000008
:020000040000fa
:040084007004000004
:020000040000fa
:040088007004000000
:020000040000fa
:04008c0070040000fc
:020000040000fa
:0400900070040000f8
:020000040000fa
:0400940070040000f4
:020000040000fa
:0400980070040000f0
:020000040000fa
:04009c0070040000ec
:020000040000fa
:0400a00070040000e8
:020000040000fa
:0400a40070040000e4
:020000040000fa
:0400a80070040000e0
:020000040000fa
:0400ac0070040000dc
:020000040000fa
:0400b00070040000d8
:020000040000fa
:0400b40070040000d4
:020000040000fa
:0400b80070040000d0
:020000040000fa
:0400bc0070040000cc
:020000040000fa
:0400c00070040000c8
:020000040000fa
:0400c40070040000c4
:020000040000fa
:0400c80070040000c0
:020000040000fa
:0400cc0070040000bc
:020000040000fa
:0400d00070040000b8
:020000040000fa
:0400d40070040000b4
:020000040000fa
:0400d80070040000b0
:020000040000fa
:0400dc0070040000ac
:020000040000fa
:0400e00070040000a8
:020000040000fa
:0400e40070040000a4
:020000040000fa
:0400e80070040000a0
:020000040000fa
:0400ec00700400009c
:020000040000fa
:0400f0007004000098
:020000040000fa
:0400f4007004000094
:020000040000fa
:0400f8007004000090
:020000040000fa
:0400fc00700400008c
:020000040000fa
:040100007004000087
:020000040000fa
:040104007004000083
:020000040000fa
:04010800700400007f
:020000040000fa
:04010c00700400007b
:020000040000fa
:040110007004000077
:020000040000fa
:040114007004000073
:020000040000fa
:04011800700400006f
:020000040000fa
:04011c00700400006b
:020000040000fa
:040120007004000067
:020000040000fa
:040124007004000063
:020000040000fa
:04012800700400005f
:020000040000fa
:04012c00700400005b
:020000040000fa
:040130007004000057
:020000040000fa
:040134007004000053
:020000040000fa
:04013800700400004f
:020000040000fa
:04013c00700400004b
:020000040000fa
:040140007004000047
:020000040000fa
:040144007004000043
:020000040000fa
:04014800700400003f
:020000040000fa
:04014c00700400003b
:020000040000fa
:040150007004000037
:020000040000fa
:040154007004000033
:020000040000fa
:04015800700400002f
:020000040000fa
:04015c00700400002b
:020000040000fa
:040160007004000027
:020000040000fa
:040164007004000023
:020000040000fa
:04016800700400001f
:020000040000fa
:04016c00700400001b
:020000040000fa
:040170007004000017
:020000040000fa
:040174007004000013
:020000040000fa
:04017800700400000f
:020000040000fa
:04017c00700400000b
:020000040000fa
:040180007004000007
:020000040000fa
:040184007004000003
:020000040000fa
:0401880070040000ff
:020000040000fa
:04018c0070040000fb
:020000040000fa
:0401900070040000f7
:020000040000fa
:0401940070040000f3
:020000040000fa
:0401980070040000ef
:020000040000fa
:04019c0070040000eb
:020000040000fa
:0401a00070040000e7
:020000040000fa
:0401a40070040000e3
:020000040000fa
:0401a80070040000df
:020000040000fa
:0401ac0070040000db
:020000040000fa
:0401b00070040000d7
:020000040000fa
:0401b40070040000d3
:020000040000fa
:0401b80070040000cf
:020000040000fa
:0401bc0070040000cb
:020000040000fa
:0401c00070040000c7
:020000040000fa
:0401c40070040000c3
:020000040000fa
:0401c80070040000bf
:020000040000fa
:0401cc0070040000bb
:020000040000fa
:0401d000aa0300007e
:020000040000fa
:0401d40070040000b3
:020000040000fa
:0401d80070040000af
:020000040000fa
:0401dc0070040000ab
:020000040000fa
:0401e00070040000a7
:020000040000fa
:0401e40070040000a3
:020000040000fa
:0401e800700400009f
:020000040000fa
:0401ec00700400009b
:020000040000fa
:0401f0007004000097
:020000040000fa
:0401f4007004000093
:020000040000fa
:0401f800700400008f
:020000040000fa
:0401fc00700400008b
:020000040000fa
:040200007004000086
:020000040000fa
:040204007004000082
:020000040000fa
:04020800700400007e
:020000040000fa
:04020c00700400007a
:020000040000fa
:040210007004000076
:020000040000fa
:040214007004000072
:020000040000fa
:04021800700400006e
:020000040000fa
:04021c00700400006a
:020000040000fa
:040220007004000066
:020000040000fa
:040224007004000062
:020000040000fa
:04022800700400005e
:020000040000fa
:04022c00700400005a
:020000040000fa
:040230007004000056
:020000040000fa
:040234007004000052
:020000040000fa
:04023800700400004e
:020000040000fa
:04023c00700400004a
:020000040000fa
:040240007004000046
:020000040000fa
:040244007004000042
:020000040000fa
:04024800700400003e
:020000040000fa
:04024c00700400003a
:020000040000fa
:040250007004000036
:020000040000fa
:040254007004000032
:020000040000fa
:04025800700400002e
:020000040000fa
:04025c00700400002a
:020000040000fa
:040260007004000026
:020000040000fa
:040264007004000022
:020000040000fa
:04026800700400001e
:020000040000fa
:04026c00700400001a
:020000040000fa
:040270007004000016
:020000040000fa
:040274007004000012
:020000040000fa
:04027800700400000e
:020000040000fa
:04027c00700400000a
:020000040000fa
:040280007004000006
:020000040000fa
:040284007004000002
:020000040000fa
:0402880070040000fe
:020000040000fa
:04028c0070040000fa
:020000040000fa
:0402900070040000f6
:020000040000fa
:0402940070040000f2
:020000040000fa
:0402980070040000ee
:020000040000fa
:04029c0070040000ea
:020000040000fa
:0402a00070040000e6
:020000040000fa
:0402a40070040000e2
:020000040000fa
:0402a80070040000de
:020000040000fa
:0402ac0070040000da
:020000040000fa
:0402b00070040000d6
:020000040000fa
:0402b40070040000d2
:020000040000fa
:0402b80070040000ce
:020000040000fa
:0402bc0070040000ca
:020000040000fa
:0402c00070040000c6
:020000040000fa
:0402c40070040000c2
:020000040000fa
:0402c80070040000be
:020000040000fa
:0402cc0070040000ba
:020000040000fa
:0402d00070040000b6
:020000040000fa
:0402d40070040000b2
:020000040000fa
:0402d80070040000ae
:020000040000fa
:0402dc0070040000aa
:020000040000fa
:0402e00070040000a6
:020000040000fa
:0402e40070040000a2
:020000040000fa
:0402e800700400009e
:020000040000fa
:0402ec00700400009a
:020000040000fa
:0402f0007004000096
:020000040000fa
:0402f4007004000092
:020000040000fa
:0402f800700400008e
:020000040000fa
:0402fc00700400008a
:020000040000fa
:040300007004000085
:020000040000fa
:040304007004000081
:020000040000fa
:04030800700400007d
:020000040000fa
:04030c007004000079
:020000040000fa
:040310007004000075
:020000040000fa
:040314007004000071
:020000040000fa
:04031800700400006d
:020000040000fa
:04031c007004000069
:020000040000fa
:040320007004000065
:020000040000fa
:100400008f1e21000eff27000e0188000000200033
:100410000000e000020032000001200020028800fd
:1004200014000700a50107000000e00003003a00e7
:10043000a00e220001002000020037000000200072
:1004400001002000810f70004220ae000f00070065
:10045000000020000000e0004220ae00000002008a
:1004600000000000461f0200000000000040da000b
:100470000000fe00400020000000e000020032000a
:10048000002020009001880000000600a1028800e2
:10049000800478000000eb001f003700e284440075
:1004a00054a0b4009905ba00e284440054a0b400fa
:1004b0009906ba00e284440054a0b4000006eb00a0
:1004c000476fde00fd07b200ae018800636ce100fb
:1004d00003003a000ad801000000eb000e003700cc
:1004e000606ce10008003a00004deb000a05e800ee
:1004f000020039003420ec000af0a0008b05e9006e
:10050000f9ff3e00040037006168e100010032009d
:100510000086eb000b00070019c7ba001905ba00e6
:100520000e04e00003003a000a00e000dbff3a009e
:1005300000000600fe07b200ae0288008a047800c0
:10054000f5ff37000cd0a300e20f4d001c0039006e
:1005500089027800354dba000a05e800020039002a
:100560003420ec000af0a0008b05e9000f003200f7
:10057000254dba000a05e800020039003420ec00dd
:100580000af0a0008b05e900080032000c00e00032
:100590000600320015cdba000a05e8000200390055
:1005a0003420ec000af0a0008b05e9008984e80003
:1005b00054a0b4000b00e000e2ff3a000000060087
:1005c0009902ba00055d78008b05e900f7ff32005b
:1005d000c82ade00055d78008b05e900f3ff3200d4
:1005e0000c00e000f1ff320019ddba00eeff370029
:1005f0006100e10001003200100005005400f80025
:1006000050102000a002880000f927001000ba0056
:100610005400f90007e02b0007f0a7008703d10082
:100620000703780001c4fe000003eb000120200056
:1006300090018800e1302a00111303008703e900cc
:10064000fdff3a0000f0a6000000050000f0a00049
:1006500080c4fe0086037800f3ff37000408200002
:10066000010037000002eb006100e10001003200f0
:10067000100005003200f8003400f8008102780014
:10068000930188003200be000100e0000c0032003f
:100690000470a70000f0a00032037800c733de002a
:1006a000848343004220af008703e800a70188004d
:1006b000f607b2007f30e100040032002000200085
:1006c0003400f9003200f900000006008100e90062
:1006d0000500e00003003a00018009003210030029
:1006e000e8ff37000180090032900300d561ae00b9
:1006f000e4ff370030002000f1ff370050052000f4
:10070000b00e8800a00a2000b00e8800d3e1a80037
:100710000000060050052000b00e8800a00a20004e
:10072000b00e8800d3e1a90000000600ce07040047
:1007300000000000e80704000000000016080400a4
:1007400000000000b41204000000000000000400db
:1007500000000000801f78003200f8003400f8002c
:1007600010002000a00188000020200000d0fe0022
:100770000000fa000d48a900506180001080880038
:100780000080fa003400f9003200f9004f007800d0
:1007900000400600809fbe003200f8003400f800e0
:1007a00010002000a00188000020200000d0fe00e2
:1007b0000000fa000188a900f11180000002200069
:1007c000008060000000e0000b00320030808000fc
:1007d000104078000004e000070032003080800004
:1007e000104078000080fb004012880030808000bc
:1007f0000000e800308088000080fa003400f90032
:100800003200f9004f00be0000400600801f780053
:100810003200f8003400f80010002000a001880029
:100820000020200000d0fe000200fa000168a900ac
:100830002012800000407800004f78000080fa000d
:100840003400f9003200f9004f0078000040060043
:100850003600f800809fbe00829fbe00849fbe00cd
:10086000869fbe003200f8003400f800100020001f
:10087000a00188000020200000d0fe000000fa0047
:100880000028a90010c0b30004f0b70008cba800ee
:1008900001808000703e2000808f500004003600f0
:1008a000f100200040e52000d60e07000030ef00e8
:1008b000008080000000e800008088000080fa00ce
:1008c0003400f9003200f9004f03be004f02be00b1
:1008d0004f01be004f00be003600f9000040060088
:1008e0000040da000000fe000a00fa0011002000bb
:1008f000b1bf9f00c0bf9f006a805700d1070700ab
:100900004fb897000080fa00000006000a00fa00c5
:10091000e20f500034003e00208f8000e10f5000b5
:1009200003003200e20f500011003a000c003700c3
:10093000832320000300e00001003a000040da00b9
:100940003802e200020035004022ef0039e2a80040
:1009500038a2ab000d003a0038a2a8000b00370007
:10096000032620000300e00001003a000040da0006
:100970006002e200020035006822ef0061e2a80098
:1009800060a2ab0001003a0060a2a80082017800da
:100990000b0037003102fb00e10f500004003a0069
:1009a0003e82ab00feff3a0044128800030037008d
:1009b0006682ab00feff3a00841388008301e900e1
:1009c0000300e000f3ff3a00e10f500003003a009b
:1009d0003ea2ab00feff32000b00370066a2ab0068
:1009e000feff32000800370033002000b3bf9f0035
:1009f000c0bf9f00d1bf9f00e2bf9f006a80570029
:100a0000920707006fb99700020078000080fa0093
:100a1000000006000a00fa0051002000b1bf9f004c
:100a2000c0bf9f006a8057008a0707005fb8970021
:100a30000080fa0000000600889fbe008004780055
:100a4000308f80000000e00004003a000e00070034
:100a50000084eb000000e00008003500388f8000c3
:100a60000900e0000500320009004400060007000c
:100a70000000e00001003d000084eb000800780069
:100a80004f04be0000000600800078000100e00076
:100a900003003a0000002000308f880000000500ad
:100aa0000080eb0002002000828f500002003e0018
:100ab000318f88000000eb000000060000000500f8
:100ac00003f0a200889fbe008a9fbe008c1f7800a2
:100ad000b7000700be0033006450e1004f00320051
:100ae0006420e1005200320003826c0007003b00ea
:100af0000905d0000306d000820f54000c065d00eb
:100b000002003900020032008901780003067800f3
:100b10008582550004003d000003fd008103fd00b7
:100b20008502ea008b854200840f720002003b00c0
:100b300060001000e08018006011b8000005eb00b4
:100b40007a28e1000a00390006007800c75ddd0060
:100b5000f707b200878075002d0037008281710091
:100b60000a017800610560008180d1000080d30017
:100b70008502e900f9ff3b00060440008784480035
:100b800002003b0060041400e0841c000988a300fc
:100b9000070032008a817100828171006101640066
:100ba0008904d1000884d3008b05e80017003700c2
:100bb0000978a30013003a000b00e0001300340092
:100bc0008b05e9000804440089844c000a44740041
:100bd0000978a3000d003a000b00e0000700340084
:100be0008b05e9000804440089844c0001003a00a8
:100bf0000b0020000978a300f7ff32000001eb0092
:100c000002003700828171000a0178002d00070080
:100c10000cf0a70001f0a000760037006420e1008e
:100c200002003a00838f6c00760033000801be009a
:100c30000200be006f0037000001be004700070041
:100c40000470a70003f0a1006509b100160032008e
:100c50000d0035006828e10006003500f0ff2f0088
:100c6000f1ff27000300e00013003b000100280013
:100c70000000050000004000818048008502e90076
:100c8000fcff3a0008003700f88f420002003c00e9
:100c90008000eb00000005008100d1000080d3003f
:100ca0008502e800fcff3a000300e00002003b0080
:100cb00060001000e0801800000006006011b8001d
:100cc0008700370081002000618055000b003d0047
:100cd0000b00200061fe2f000100e1001d00340028
:100ce00082817100610164008904d1000884d3000d
:100cf0000000e800faff3a00710020006100640083
:100d0000030070000200600009003200610444002a
:100d1000e0844c000988a500050032008b05e8003e
:100d20006808e10002003a008904d1000884d30079
:100d3000f20f20000258e10005003d00c75ddd0014
:100d4000f907b200898075000800780000000600ed
:100d50000bf827008b00780000000500c70ade00b2
:100d6000f107b200f50fb20008003200e1cf4200f7
:100d7000020032000170a00024000500810f700005
:100d8000010032000408050044000500810f7000d6
:100d900002003a00140005008502e900000040004e
:100da00081c04800fcff3b000170a000240005004a
:100db0000004be00e9ff07000003be000405be00fa
:100dc0000200be00e5ff0700844f7500000006002a
:100dd0000200be006450e100050036006420e1001e
:100de000020036000968a30001003a000800be00b6
:100df0000160a0004f0678004f05be004f04be0002
:100e000000000600f0ff2f00f1ff2700f9ff370078
:100e1000889fbe008a9fbe008c1f7800e4ff0700f9
:100e2000ebff330003866c006450e10024003200c5
:100e30006420e100270032006150e100220032000e
:100e40006120e100210032008b854200eb07b100f8
:100e50000134b800003ab8000804420089844a000e
:100e6000013ab8000030b8008880400009014a000b
:100e70000400330000004000818048000201490066
:100e80008b05e900c909dd00830170000100320013
:100e900013002000c814de004814dd004709de00fe
:100ea0001200b200c808de000884700085ff070049
:100eb00001f0a1000cf0a70001f0a000cdff370069
:100ec0006120e100cfff32000801be000200be0039
:100ed000f7ff37006150e100fcff3a00c9ff37001f
:100ee000889fbe008a9fbe000082700004027100cd
:100ef00004827100260032000004be000200be0021
:100f00006011b8006b092000950220000182cf001b
:100f10000a0039000541b1000082cf000700390006
:100f20000541b1000982cf00040039000541b1003c
:100f30000882cf00010039000541b100054252008e
:100f4000120032000a003b008281710061016400de
:100f50008100d1000080d3008984d3000884d300ad
:100f60008b05e8000442e800f7ff3a00070037006d
:100f70000804440089844c00000048008180480037
:100f80008b05e9000442e900f9ff3a004dff070034
:100f90004f05be004f04be0000000600889fbe0043
:100fa000800478000203be00010478006149b800a3
:100fb000898fd2008381d200080278000600be002b
:100fc00026060700088044004f04be00000006000b
:100fd000881f78000204780008017800e20007000a
:100fe000080040004f047800000006000000fa00ee
:100ff000881f7800000478006a825700bfb9970004
:1010000008017800e17c2000807e200016000700a7
:101010000000e0000200350000044400004ceb003a
:101020004f0478000080fa0000000600889fbe0090
:10103000000478000203be008104780008027800f2
:1010400089017800120020000600be00b5010700eb
:10105000890f5000010032000004eb000800780006
:101060004f04be00000006006800fa00889fbe0022
:101070008a9fbe0080047800010478008205780011
:10108000030578008400780000f92f000f0040006d
:10109000a2010700d98f9f00fb8f9f000000eb008b
:1010a000a09f9f00e88f9f009a84fb000904fb002b
:1010b0008904ea00cf4cde0050022000800f54006b
:1010c0000d003200e18f54000b003a000901780056
:1010d0008a0078007f889700df899700030001006d
:1010e000f08f9f000000e000950032002f989700dd
:1010f0000000e800a09f9f00090545005002200065
:10110000800f5400040032000800e000e6ff3a00bf
:101110002f9897008b0037000000eb00809f9f0006
:10112000f0979f00e0979f00d0979f00c0979f0087
:10113000b0979f0007003700611d2100010050009b
:1011400000004000a11c2100808040004f989700c3
:1011500011007000c09f9f000a0478000805780005
:10116000ba4478008900fb00601d2100850007005b
:101170000000e000f0ff3a00a1c2b30081cf5400ac
:101180000e003a008f8897000180e900808f9f0051
:1011900010007800b09f9f000000e00005003d00b7
:1011a0000000ea00b09f9f004f9897000020a00029
:1011b000c09f9f000804e80010003700b09f9f0008
:1011c000880078000000eb0005003700f3ff2700df
:1011d000830f500002003200ea00b9000000410015
:1011e00001047800880078003101fb000203b1009f
:1011f000e90f5100f5ff3600b09f9f00e0c2b30039
:10120000984f1000020032000080eb0019003700f8
:10121000a0c2b300d84f100007003a008f88970093
:101220000180e900808f9f0010007800909f9f0050
:101230000804e800100037000000eb00909f9f00ba
:101240008800780005003700f3ff2700830f500067
:1012500002003200ea00b9000000410001047800f9
:10126000880078003101fb000203b100e90f510052
:10127000f5ff3600909f9f00984478008900fb009e
:10128000201c21003f0007000000e00002003200a7
:101290000804e800010037008044eb00a97f9f00ac
:1012a00080c6b30080cf540006003a0098cf1400e7
:1012b00010003a0066405000a07f9f000804e8003c
:1012c0000c003700c0c6b30080cf540009003a00bc
:1012d00098cf140007003a0067404000d84f100034
:1012e00002003a006e4050000100370010c7b30002
:1012f000a07f9f001801fb00c3fb2f008f814100de
:1013000001f92f008f80400020f92f000f004000ce
:10131000ac0107000000e00009003a00c1fb2f000b
:101320008f80400020f92f000f00400021000700af
:101330000000e000020035000805e8005aff370011
:101340000080eb004f05be004f04be000080fa0095
:101350000000060003027800820178000101780095
:101360006181200040ff37008001780002003700d3
:10137000b15978000201e9000200e000fcff3a00e8
:1013800000000600020037000304e00006003200ff
:101390000001780002007800b041780081cf510050
:1013a000f9ff3a00010037000001eb00020078006d
:1013b000000006000400fa00889fbe008a9fbe005d
:1013c0008c1f78000004780001067800a8149000b3
:1013d00028089000808454003808900080845400cd
:1013e000480890008084540058089000808454007d
:1013f000680890008084540078089000808454002d
:101400000002220090bf9f0000032300a0bf9f00a6
:10141000381090000028a30015003a000900e000f1
:1014200013003400090578008a057800e20f5500a2
:10143000010036002b002000c80190000b0178004d
:10144000ee805700680090000300010060049800df
:101450000000e000aa003200181090000b004000cd
:10146000101498000b0555004240a900eeff3c0007
:10147000280990000200e0000c003400c801900030
:101480008c00780068009000030001006004980060
:101490008080eb000000e0009a003200981090007d
:1014a000280890000080400010149800380d90002b
:1014b0000a00e000110034008a057800e20f5500b0
:1014c000010036002b002000c80190000b017800bd
:1014d000ec80570068009000030001006004980051
:1014e0000000e00086003200181090000b00400061
:1014f000101498000b055500edff370008699000a7
:10150000c808900050c6b300804f510008003a0050
:101510000100e00015003400580290000809900016
:10152000980990006800900004000100070037004f
:101530000100e0000d003400c801900001017800b6
:10154000f80090006800900003000100600498001b
:101550008080eb000000e0006a00320098109000ec
:10156000480890000080400010149800580d90002a
:101570000a00e000110034008a057800e20f5500ef
:10158000010036002b002000c80190000b017800fc
:10159000ec80570068009000030001006004980090
:1015a0000000e00056003200181090000b004000d0
:1015b000101498000b055500edff370008699000e6
:1015c0006808900051c6b300814f51000d003a00e9
:1015d0000000e0001c00340078019000c808900072
:1015e000010141006111b800828fd2008381d200d5
:1015f000580290008000780068009000040001000c
:10160000090037000000e0000f003400780190006e
:10161000c808900081004100c801900000017800d6
:101620006800900003000100600498008080eb00d7
:101630000000e0003300320098109000680890002d
:101640000080400010149800780d90000a00e0001f
:10165000110034008a057800e20f550001003600c1
:101660002b002000c80190000b017800ec8057008f
:101670006800900003000100600498000000e00092
:101680001f003200181090000b004000101498004a
:101690000b055500edff3700381090008000eb007f
:1016a0000028a300170032000900e00015003400f4
:1016b00009057800e28f5400010036002a0020005e
:1016c000c80190000a017800ee8057006800900081
:1016d00003000100600498000000e00008003200f0
:1016e000181090000a004000101498008a845400da
:1016f0004240a900eeff3c008000eb0001003700f3
:101700008080eb00010078004f0678004f05be0096
:101710004f04be000080fa000000060001087800b7
:1017200000000600e6874700889fbe008a9fbe0033
:101730008c9fbe008e1f780082bf9f00040478003b
:101740008299b900f2b79f000200e0005900320010
:101750000fb997000200e000570032000006be00fb
:101760007fb79700c800900068009000808f5000fd
:101770000400390008007800aa0107000000e0001a
:101780003b00350000402000180060000a003200d5
:101790008e017800a20020000c00be005804070053
:1017a0000005be0000807500070032008c04550063
:1017b0008904e800050037008e0478000a00200044
:1017c0000b002000010037008e04780048019000d3
:1017d0006800900002005000890f500003003100a3
:1017e000800478000a0020000b0020006111b8007e
:1017f000828fd2008381d200090278000c00be00e3
:10180000160407000907570048009000090040002f
:10181000400498000a857500040032000800780032
:101820002c0007000000e00011003a000e00e0006c
:101830000f0032006148b800808fd2008180d20052
:101840000000780000f0a1000c01d0008001d00061
:10185000030641004220a80081864e004200a900f4
:101860004220ae004200a8000c86d300bdff370026
:10187000008020001800600002003200080078009c
:101880001400070000c020001800600002003200b1
:1018900048009000600498007fb197000e07510047
:1018a0000fb99700050009000287d8008001780071
:1018b000010037008001eb00030078004f0778003b
:1018c0004f06be004f05be004f04be006f00b100c2
:1018d00000000600889fbe00000478000800e000b9
:1018e00010003a008004eb00090478008800d00062
:1018f0000019210000804000100078000000e00086
:1019000004003200f3ff07000000e00001003d008a
:101910008084eb000804e800e80f5400f3ff3a006d
:101920002500370000002200180060008004eb0052
:1019300021003200a80490000f0037000901510077
:10194000384090000000fb0089007800effb0700a2
:101950000000e00007003c002800900040049800d0
:1019600060049800500c98001890a0008084eb0050
:10197000110037008084440048019000828f540099
:10198000eeff39002800900040049800980078008d
:1019900002c020000281600001003a00380090007f
:1019a00001e8a30002003200600498000100370043
:1019b000500c98008004eb00090078004f04be0032
:1019c00000000600889fbe008a9fbe00e4c6b300e8
:1019d000844f5100c400320010003c006b425200a2
:1019e000844f51001800320005003c0054c2b3007f
:1019f000844f5100fc00320084c5b3000f00370053
:101a000044c6b300844f51001500320065424200c5
:101a1000844f5100f7003a001100370004c7b300ab
:101a2000844f5100e30032005a0035006542420005
:101a3000844f51005700320063424200844f5100ee
:101a4000ec003a00530037001181e9008208780069
:101a5000a00890008181410092497800eb00370096
:101a6000006a9000c5c6b300854f520007003a00d7
:101a70009102780064825200840878001402be004b
:101a80004fabde00860378001400370015c7b300a3
:101a9000854f520003003a00110478006802540098
:101aa00005003700a5c6b300854f520006003a0076
:101ab0009104780068825400840878005403be00c2
:101ac0004402be00050037001182e9008408780056
:101ad00014027800cfa2de00612bb9000498be008a
:101ae0000690be008068900088c6b30088cf500082
:101af0000d00320028c6b30088cf500004003a0021
:101b00000402fb00cfa2de00612bb9000800370001
:101b100048c7b30088cf5000030032006644440039
:101b200088cf500004003a00cfa2de00612bb9003c
:101b30000498be000690be003002be002003be0026
:101b4000a0089000e00f5200e08f5a00e00f5b0009
:101b5000e08f5b0003003d0001824100d5c2b3006d
:101b60000a003700301290000418a300030032006e
:101b700001824100b5c2b300040037000408a3008d
:101b8000540032000182410005c2b300054a7800ca
:101b90004e003700006a9000c5c6b300854f520062
:101ba00008003a00110578006402550084087800a6
:101bb0001404be006055b8000802be000a03be004f
:101bc0001400370015c7b300854f520003003a00d8
:101bd000910478006882540005003700a5c6b30060
:101be000854f520006003a00110578006802550042
:101bf000840878005403be004402be00050037008c
:101c00001182e90084087800140278008002eb0059
:101c10006033b8000498be000690be008068900053
:101c200088c6b30088cf50000d00320028c6b3002c
:101c300088cf500004003a000482fb008002eb00d1
:101c40006033b8000800370048c7b30088cf5000a1
:101c5000030032006644440088cf500004003a007c
:101c60008002eb006033b8000498be000690be000e
:101c7000b01090000138a300160032003002be0000
:101c80002003be00e00f5200e08f5a00e00f5b001f
:101c9000e08f5b000f00320081c7b300814f51001d
:101ca0000300320081c5b300814f510009003a00a2
:101cb000a00890000182410005c3b300054a7800e6
:101cc0008100e80001824100024a78008100e800ba
:101cd00021089800a00890008181410073009800bd
:101ce000824078003e00370080699000c4c6b3008f
:101cf0001181e90084cf5100220032000a003c002b
:101d00006442520084cf51002500320004c2e80032
:101d100084cf5100130032006842520084cf51003a
:101d20001e003a000a00370044c7b30084cf5100b8
:101d30001b0032006642420084cf5100180032007e
:101d40006942520084cf510014003a000500370068
:101d50008208780092007800206090008048780027
:101d60002c00370082087800920078001012900052
:101d7000cfa2de00612bb9008498be008690be0021
:101d8000240037008208780092007800101190003b
:101d9000cf91de008288be001e0037001181e9006d
:101da0008208780092007800101090008008780077
:101db000180037001181e9008208780012027800cb
:101dc000cfa2de00612bb9000498be000690be00d1
:101dd000a0089000818141007300980081c7b30082
:101de000570007000b003700a008900081814100d8
:101df00005003700a0089000818141000204e00046
:101e000001003a0052c2b300824978008100e80024
:101e1000210898000000eb004f05be004f04be00f3
:101e200000000600889fbe008a1f7800000478002a
:101e3000c8009000680190000000eb00828f500005
:101e40003c003900180078002200290002016000df
:101e5000e20f510007003200012020000000e000e6
:101e60000100350001202400008c70000080eb0090
:101e7000300037000200260002006000820f500090
:101e800009003a0038009000808f500006003900a9
:101e9000080078008ffe0700800078000080eb00cb
:101ea0000100e00023003a001805780000c020007f
:101eb0000000650018003a00a804900060022000ad
:101ec00008004000808f540013003a0000202000da
:101ed00028020700200498000000e00005003a00f6
:101ee00029049800490498008904e80039049800fe
:101ef000080037000a60a0000a0c7800400498002f
:101f0000012020008080400031049800400c98009f
:101f1000500c9800430107002800900050049800de
:101f2000380090006004980000002600180c700033
:101f30000000eb004f0578004f04be0000000600d3
:101f4000fc874700889fbe008a9fbe008c9fbe0012
:101f50008e1f78000006780080c5b30080cf500047
:101f60000a0032007740400080cf50000a00320063
:101f70006940400080cf50000b003200101b210050
:101f800080bf9f00ae0020000a003700021a210027
:101f900082bf9f0006003700131b210083bf9f00f4
:101fa0008e00200003003700141b210084bf9f0017
:101fb0000e0120003c02be002c03be000605be0040
:101fc0000404be0040c6b30080cf500003003200be
:101fd0006540400080cf50000b003a00e00f5200f7
:101fe000e08f5a00e00f5b00e08f5b0006003d00d1
:101ff0006000b8006011b8000404500085845800e7
:102000000605590087855900e80f57000400320083
:1020100040002000f00f57003a003a00010037005e
:1020200030002000e00f5400e08f5c00e00f5d0006
:10203000e08f5d0004003a008c1090008d012000bc
:102040000100e000070032008e00e9008880600097
:102050008fba97008180420091407800f1ef9f0095
:102060007d012000800078008100e9000500330038
:102070008b05d1000a85d3008984d3000884d3005e
:10208000f9ff3700089ebe000a96be001300370015
:102090008d06e9008e00e900848060000fb997008a
:1020a000810041001141780083fd2f008d814100a6
:1020b00082f77900800178008301e9000500330090
:1020c0008783d1000683d3008582d3000482d300a6
:1020d000f9ff3700049ebe000696be003c02be001b
:1020e0002c03be00e00f5200e08f5a00e00f5b00af
:1020f000e08f5b00910034000d00e000e4ff3c0045
:102100008e0037000c68900081c6b300814f5000ec
:102110000b00320006003c000004e0000800320022
:10212000e6c05000814f500052003a0004003700d2
:10213000c1c6b300814f50004e003a002300370063
:102140000800e00004003a000c1090008d0120000f
:102150000000e00007003200050009000e84d800ee
:102160000fba97000100420010407800f0ef9f0086
:102170007d012000050009000e84d8000b00370007
:10218000050009000e04d8008d06e9008e81b90013
:10219000020454008fb897000884400098417800ea
:1021a00082fd2f000d014100837779000004780043
:1021b0000800e000020032000d00e000f0ff3c00eb
:1021c000cfc4de00614db90027003700e00f540096
:1021d000e08f5c0004003a000c1090008d0120009c
:1021e0000000e000080032006171b9000800be0084
:1021f000fd0107000fba970080004200914078006f
:10220000f1ef9f007d0120006171b9000800be0060
:10221000e50107000c0037006171b9000800be003d
:10222000d20107008d06e90080f1b90002045400d4
:102230008fba9700088442009841780082fd2f00f1
:102240000d014100837779000004be00e00f5000cb
:10225000e08f5800020032000d00e000eeff3c006d
:102260004fcdde008a057800089ebe000a96be00ab
:1022700032003700e00f5400e08f5c00e00f5d009b
:10228000e08f5d0004003a000c1090008d012000ea
:102290000000e0000a0032006172b900612bb90051
:1022a0000800be000a01be00780207000fba9700be
:1022b0008000420091407800f1ef9f007d012000f6
:1022c0006172b900612bb9000800be000a01be00ae
:1022d000670207000e0037006172b900612bb90078
:1022e0000800be000a01be006c0207008d06e9006e
:1022f00080f2b900040454008fba970008844200a9
:102300009842780084fd2f000d02420085777a0004
:10231000009ebe000296be003c04be002c05be001e
:10232000e00f5400e08f5c00e00f5d00e08f5d0087
:10233000020034000d00e000e7ff3c00e80f57000a
:1023400010003a003c1090000038a3000d0032004d
:10235000f78f560006003e0080fd2f000d00400064
:10236000ef40780000c3b30080cf5000050032007a
:1023700002c3b30071fd2f008d8040008d06e9007f
:1023800082f7780078811600420e98007c00900059
:1023900083fd2f008f8141008d804100f2fb0700fb
:1023a0004c0890008c109000810f500006003d00fa
:1023b00000805000300e98003c1090000040a100ba
:1023c000301698000f0037000100e0000d003d00be
:1023d000bc109000f4806000f08f500009003a00bb
:1023e0002c119000ac089000810051003c09900035
:1023f00082805000008050004240a900010034005b
:10240000300e98004f0778004f06be004f05be0003
:102410004f04be00cf01b10000000600402b210098
:1024200062003700881f7800081e21001804e000b1
:1024300003003a00f9ff070020c0b300004c780009
:102440004f04780000000600889fbe00000478005a
:10245000080078001ffd07008004780000042000b9
:102460001800600002003200280090005c000700a5
:102470000000eb0020049800384090000004e000c9
:10248000050035000000fb0017f907000000e00020
:10249000010032008084eb00181090000000e00082
:1024a000080032005bf907000000e0000100320084
:1024b0008084eb0018109000490007000000eb003a
:1024c0001014980000082000180060001500320069
:1024d0000001eb006000b8000202d00003192100e7
:1024e00003024200940f140005003a00000040006f
:1024f00081804800008041000008eb0006003700a2
:1025000061004000e08048000201e800e80f500050
:10251000e08f5800f0ff3a00080078003000070014
:102520000e003700000c780000c0eb00304498002b
:102530006002200008004000200498004004980039
:1025400050049800400c980060049800500c9800cb
:102550007004980076004400000c98000900780090
:102560004f04be0000000600881f78000004eb0046
:102570006140b800e2ff2f00f3ff2f001d010700ac
:10258000e219210080004100110078000000e00005
:1025900001003200acff07000804e800e80f540017
:1025a000f3ff3a004f04780000000600010020000d
:1025b0000100e00009003200010080000100e0009d
:1025c000060032008100e900010088008100d0008f
:1025d0000200800082804000800878000000060031
:1025e0000000e0002f003200c0017800e38f5100ae
:1025f0002c0036000308a3002a003a00f18e800068
:102600000100e00002003200810f500004003100a0
:1026100011009800f08e88001600370082007800c4
:10262000110190000200e00002003200800f510012
:10263000faff39001102780084824000850f5000b3
:1026400018003900808f520003003a0083084200ce
:1026500001007800070037000200e00003003200ac
:1026600083014000830f51000e00390012009800d2
:1026700090009800900090000100e00009003200f6
:1026800010014000828f500006003a00c21d210058
:102690000009eb0010017800110841009100900042
:1026a0001100980000000600889fbe00000478001a
:1026b000e18e80000100e00002003200010078009d
:1026c0000d003700f18e8000e01d2100040037006e
:1026d000910f5400250036000180e8009100900021
:1026e0000100e000faff3a0010003700920f54009a
:1026f0001e0036000280e800100178000200e000b1
:10270000faff3a0011017800f18e8000e01d2100ef
:1027100004003700910f5400140036000180e800d7
:1027200091009000828f5000faff3a00198f8000cc
:10273000888f540001003100880478000900780077
:10274000360007000000e00004003a00888f5400c3
:10275000050032008904d100f5ff37000918780020
:102760009fff0700d2ff37000000eb004f04be00c0
:1027700000000600881f7800630440000800a100e4
:102780008000eb00800f540021003600e30f54005e
:1027900001003e004800200008007800c2ff07004a
:1027a0008000eb000000e00019003200900078008b
:1027b0009101780064815100880f510003003100bd
:1027c00011019000020878000700370008814000de
:1027d0000208780091019000130198001001780020
:1027e0001109140088087800100178000000eb003f
:1027f0000200e00004003200920190000300e000bb
:10280000010032000280e800e08e88008180e8004c
:10281000010078004f047800000006008000780076
:102820000000eb000100e00005003400010078002a
:1028300081f80700e10f400001003a000000eb00c2
:102840000000060000c0da000000060000c0da0048
:102850000000060000c0da00000006003400f800a6
:102860003200f8000203be0082027000850272008e
:1028700002f0a6008301e800a301880000f0a60092
:102880008100e800910188001500b2000c003200c0
:10289000104978000402e90015003200610141008e
:1028a000020039003420ec000200280061004000e2
:1028b000f7ff39003220ec0000002800f4ff370059
:1028c000100978000482e900090032006201410029
:1028d000020039003420ec000200280062004000b1
:1028e000f7ff39003220ec0000002800f4ff370029
:1028f0003200f9003400f9000601be0000000600b5
:102900000300e000070032009501800001d0fe00c6
:102910001042780005d0fe000402fb00820f520036
:10292000110032008301e9009501800001d0fe0012
:102930001042780005d0fe000404e00008003200d8
:10294000000278001000b00000026a004260af0090
:1029500000f0a0000482d2000180b000e8ff370040
:10296000000020000100200000000600839f680096
:102970000100e00002003d0060001000e08018004f
:102980000300e00002003d0060011100e081190039
:10299000050007004f00e00002003b00600010004f
:1029a000e0801800000006006022b8000602200047
:1029b0000000d0008180d2000482d2008582d20043
:1029c0000000a0000202520083825a00030031007e
:1029d0000202420083824a000000a1000603e900cf
:1029e000f3ff3a0000000600efff07000400be00fe
:1029f00000000600020ab900001bb9000200b8007e
:102a0000810042008100430000000600889fbe0054
:102a10008a9fbe0030044200b0844a0030054b005b
:102a200090854b006000b1000898be000a90be007f
:102a30000440e10005c8e10006d0e10007d8e1004c
:102a400002003100680040001008e8004f05be0099
:102a50004f04be0000000600889fbe008a9fbe0093
:102a60003004be002005be000418540005985c0028
:102a700006185d0007985d00110020000440e10089
:102a800005c8e10006d0e10007d8e10001003900e7
:102a90008000eb00108810004f05be004f04be0000
:102aa000000006001200fa00889fbe008a9fbe0048
:102ab0008c9fbe00e0b79f00f1b79f0082bf9f00d0
:102ac00093bf9f000605be000404be000000eb009b
:102ad000d0b79f00c0b79f00b0b79f00a0b79f00be
:102ae00090b79f00000678005fb19700cfb09700c5
:102af000820141003fb097000200e00004003d0069
:102b0000370007007e805700c0ff07000300370032
:102b1000330007007e805700cfff0700dfb6970025
:102b20000d00e0000c0035006fb29700ffb2970077
:102b30000fbb97009fbb97001000200001002000f2
:102b40006011b800000272008182720002037300fb
:102b5000838373001b0007000c06e80001042000bb
:102b6000810f5600e0ff3a000d00e00004003d0038
:102b70000802be000a03be007e805700a3ff0700c4
:102b80005fa897000000e00005003a001fb2970020
:102b9000afb297003fb39700cfb39700090007008b
:102ba0006fb09700ffb097000fb997009fb99700db
:102bb0004f06be004f05be004f04be000080fa0065
:102bc000000006000100070000000600a4b79f00f7
:102bd000b5b79f00c6b79f00d7b79f00000006009b
:102be0004f09de0082817100b3b79f004f01de0004
:102bf0008180400082807000a1b79f008fb0970055
:102c00004f09de00000040000200700090b79f00f6
:102c10007fa897004f01de00818040008280700015
:102c200081b79f000d0007004f3ade000000400012
:102c300004007000f0af9f0008000700040242008b
:102c400085824a0006034b0087834b00dfff0700a5
:102c50000802be000a03be00000006002fb2970063
:102c6000bfb297004fb39700dfb397000000060094
:102c7000881f780018002000881f780089ff07004f
:102c80008f87e9004f04780000000600801feb00ea
:102c900084ff07008f87e90000000600889fbe00c0
:102ca0008a9fbe00e00f5000e08f5800e00f5900ef
:102cb000e08f59000c003d006044b8006055b8003a
:102cc0000000540081805c0002015d0083815d0092
:102cd000180020001500070008003d00180007003c
:102ce0000004eb00050037000004eb000f000700b4
:102cf00002003d001200070018002000dcff070062
:102d00000800e000060032006022b8006033b8001e
:102d10000000520081805a0002015b0083815b0049
:102d20004f05be004f04be0000000600e00f520039
:102d3000e08f5a00e00f5b00e08f5b0000000600b0
:102d40006044b8006055b8000402540085825c00fd
:102d500006035d0087835d0000000600889fbe00bb
:102d60008a9fbe008c1f7800e00f5000e08f580053
:102d7000e00f5900e08f59000d003d006044b8009d
:102d80006055b8000000540081805c0002015d00c5
:102d900083815d001c0020000820e10009a8e100fb
:102da0000ab0e1000bb8e1000d003d00080037005b
:102db0000006eb00e00f5200e08f5a00e00f5b00ce
:102dc000e08f5b0006003d006044b8006055b8002d
:102dd0000402540085825c0006035d0087835d0069
:102de000aaff07000c00e000060032006022b800d5
:102df0006033b8000000520081805a0002015b007d
:102e000083815b004f0678004f05be004f04be0073
:042e100000000600b8
:020000040000fa
:082e1400256900000d0000001b
:020000040000fa
:102e1c000600fa00000f78001107980022079800ae
:102e2c000000eb0051052000b1468800a10a2000eb
:102e3c00b146880000688800ae0090001e0090002b
:102e4c00450507009e009000c0e12000808f5000d7
:102e5c0070003a002e0090000000e00003003a00e1
:102e6c00006c80001e007000006c88002e0090002a
:102e7c00e10f500005003a001e007800c800dd008c
:102e8c00006c800001007000006c88002e00900027
:102e9c00e20f500003003a00106c80001e0070001e
:102eac00106c88002e009000e30f500005003a00d3
:102ebc001e007800c800dd00106c8000010070005e
:102ecc00106c88002e009000e40f500003003a00b4
:102edc00206c80001e007000206c88002e0090007a
:102eec00e50f500005003a001e007800c800dd0018
:102efc00206c800001007000206c88002e00900077
:102f0c00e60f500003003a00306c80001e00700089
:102f1c00306c88002e009000e70f500005003a003e
:102f2c001e007800c800dd00306c800001007000cd
:102f3c00306c88002e009000e80f500003003a001f
:102f4c00406c80001e007000406c88002e009000c9
:102f5c00e90f500005003a001e007800c800dd00a3
:102f6c00406c800001007000406c88002e009000c6
:102f7c00ea0f500003003a00506c80001e007000f5
:102f8c00506c88002e009000eb0f500005003a00aa
:102f9c001e007800c800dd00506c8000010070003d
:102fac00506c88002e009000ec0f500003003a008b
:102fbc00606c80001e007000606c88002e00900019
:102fcc00ed0f500005003a001e007800c800dd002f
:102fdc00606c800001007000606c88002e00900016
:102fec00ee0f500003003a00706c80001e00700061
:102ffc00706c88002e009000ef0f500005003a0016
:10300c001e007800c800dd00706c800001007000ac
:10301c00706c88009e00900080e32000808f500030
:10302c0070003a002e0090000000e00003003a000f
:10303c00806c80001e007000806c88002e00900058
:10304c00e10f500005003a001e007800c800dd00ba
:10305c00806c800001007000806c88002e00900055
:10306c00e20f500003003a00906c80001e007000cc
:10307c00906c88002e009000e30f500005003a0081
:10308c001e007800c800dd00906c8000010070000c
:10309c00906c88002e009000e40f500003003a0062
:1030ac00a06c80001e007000a06c88002e009000a8
:1030bc00e50f500005003a001e007800c800dd0046
:1030cc00a06c800001007000a06c88002e009000a5
:1030dc00e60f500003003a00b06c80001e00700038
:1030ec00b06c88002e009000e70f500005003a00ed
:1030fc001e007800c800dd00b06c8000010070007c
:10310c00b06c88002e009000e80f500003003a00cd
:10311c00c06c80001e007000c06c88002e009000f7
:10312c00e90f500005003a001e007800c800dd00d1
:10313c00c06c800001007000c06c88002e009000f4
:10314c00ea0f500003003a00d06c80001e007000a3
:10315c00d06c88002e009000eb0f500005003a0058
:10316c001e007800c800dd00d06c800001007000eb
:10317c00d06c88002e009000ec0f500003003a0039
:10318c00e06c80001e007000e06c88002e00900047
:10319c00ed0f500005003a001e007800c800dd005d
:1031ac00e06c800001007000e06c88002e00900044
:1031bc00ee0f500003003a00f06c80001e0070000f
:1031cc00f06c88002e009000ef0f500005003a00c4
:1031dc001e007800c800dd00f06c8000010070005b
:1031ec00f06c88009e00900040e52000808f50001d
:1031fc0038003a002e0090000000e00003003a0076
:10320c00006d80001e007000006d88002e00900084
:10321c00e10f500005003a001e007800c800dd00e8
:10322c00006d800001007000006d88002e00900081
:10323c00e20f500003003a00106d80001e00700079
:10324c00106d88002e009000e30f500005003a002e
:10325c001e007800c800dd00106d800001007000b9
:10326c00106d88002e009000e40f500003003a000f
:10327c00206d80001e007000206d88002e009000d4
:10328c00e50f500005003a001e007800c800dd0074
:10329c00206d800001007000206d88002e009000d1
:1032ac00e60f500003003a00306d80001e007000e5
:1032bc00306d88002e009000e70f500005003a009a
:1032cc001e007800c800dd00306d80000100700029
:1032dc00306d88000080200051052000b146880028
:1032ec00a10a2000b1468800006888000080fa001e
:1032fc00000006000600fa00000f78001107980085
:10330c00220798000000eb0051052000b146880010
:10331c00a10a2000b146880000688800ae00900029
:10332c001e0090001a0407001e007800e10f5000e8
:10333c0005003a00ae0090001e009000f601070058
:10334c000040780005edb7001e007800e20f500039
:10335c0005003a00ae0090001e009000ee01070040
:10336c000040780006edb7001e007800e30f500017
:10337c0005003a00ae0090001e009000e601070028
:10338c000040780007edb7001e007800e40f5000f5
:10339c0005003a00ae0090001e009000de01070010
:1033ac000040780009edb7001e007800e50f5000d2
:1033bc0005003a00ae0090001e009000d6010700f8
:1033cc00004078000aedb7001e007800e60f5000b0
:1033dc0005003a00ae0090001e009000ce010700e0
:1033ec00004078000bedb7001e007800e70f50008e
:1033fc0005003a00ae0090001e009000c6010700c8
:10340c00004078000cedb7001e007800e80f50006b
:10341c0005003a00ae0090001e009000be010700af
:10342c00004078000dedb7001e007800e90f500049
:10343c0005003a00ae0090001e009000b601070097
:10344c00004078000eedb7001e007800ea0f500027
:10345c0005003a00ae0090001e009000ae0107007f
:10346c00004078000fedb7001e007800eb0f500005
:10347c0005003a00ae0090001e009000a601070067
:10348c000040780010edb7001e007800ec0f5000e3
:10349c0005003a00ae0090001e0090009e0107004f
:1034ac000040780011edb7001e007800ed0f5000c1
:1034bc0005003a00ae0090001e0090009601070037
:1034cc000040780012edb7001e007800ee0f50009f
:1034dc0005003a00ae0090001e0090008e0107001f
:1034ec000040780013edb7001e007800ef0f50007d
:1034fc0005003a00ae0090001e0090008601070007
:10350c000040780014edb7001e007800f00f50005a
:10351c0005003a00ae0090001e0090007e010700ee
:10352c000040780015edb7001e007800f10f500038
:10353c0005003a00ae0090001e00900076010700d6
:10354c000040780016edb7001e007800f20f500016
:10355c0005003a00ae0090001e0090006e010700be
:10356c000040780017edb7001e007800f30f5000f4
:10357c0005003a00ae0090001e00900066010700a6
:10358c000040780018edb7001e007800f40f5000d2
:10359c0005003a00ae0090001e0090005e0107008e
:1035ac000040780019edb7001e007800f50f5000b0
:1035bc0005003a00ae0090001e0090005601070076
:1035cc00004078001aedb7001e007800f60f50008e
:1035dc0005003a00ae0090001e0090004e0107005e
:1035ec00004078001bedb7001e007800f70f50006c
:1035fc0005003a00ae0090001e0090004601070046
:10360c00004078001cedb7001e007800f80f500049
:10361c0005003a00ae0090001e0090003e0107002d
:10362c00004078001dedb7001e007800f90f500027
:10363c0005003a00ae0090001e0090003601070015
:10364c00004078001eedb7001e007800fa0f500005
:10365c0005003a00ae0090001e0090002e010700fd
:10366c00004078001fedb7001e007800fb0f5000e3
:10367c0005003a00ae0090001e00900026010700e5
:10368c000040780020edb7001e007800fc0f5000c1
:10369c0005003a00ae0090001e0090001e010700cd
:1036ac000040780021edb7001e007800fd0f50009f
:1036bc0005003a00ae0090001e00900016010700b5
:1036cc000040780022edb7001e007800fe0f50007d
:1036dc0005003a00ae0090001e0090000e0107009d
:1036ec000040780023edb7001e007800ff0f50005b
:1036fc0005003a00ae0090001e0090000601070085
:10370c000040780028edb700000220009e007800f1
:10371c00808f500005003a00ae0090001e00900013
:10372c00fd0007000040780029edb70010022000d2
:10373c009e007800808f500005003a00ae0090008b
:10374c001e009000f4000700004078002aedb7003e
:10375c00200220009e007800808f500005003a0067
:10376c00ae0090001e009000eb00070000407800b7
:10377c002bedb700300220009e007800808f5000a7
:10378c0005003a00ae0090001e009000e200070019
:10379c00004078002cedb700400220009e0078001d
:1037ac00808f500005003a00ae0090001e00900083
:1037bc00d9000700004078002dedb7005002200022
:1037cc009e007800808f500005003a00ae009000fb
:1037dc001e009000d0000700004078002eedb700ce
:1037ec00600220009e007800808f500005003a0097
:1037fc00ae0090001e009000c7000700004078004b
:10380c002fedb700700220009e007800808f5000d2
:10381c0005003a00ae0090001e009000be000700ac
:10382c000040780030edb700800220009e00780048
:10383c00808f500005003a00ae0090001e009000f2
:10384c00b50007000040780031edb7009002200071
:10385c009e007800808f500005003a00ae0090006a
:10386c001e009000ac0007000040780032edb7005d
:10387c00a00220009e007800808f500005003a00c6
:10388c00ae0090001e009000a300070000407800de
:10389c0033edb700b00220009e007800808f5000fe
:1038ac0005003a00ae0090001e0090009a00070040
:1038bc000040780038edb700c00220009e00780070
:1038cc00808f500005003a00ae0090001e00900062
:1038dc00910007000040780039edb700d0022000bd
:1038ec009e007800808f500005003a00ae009000da
:1038fc001e009000880007000040780041edb700e2
:10390c00e00220009e007800808f500005003a00f5
:10391c00ae0090001e0090007f0007000040780071
:10392c004fedb700f00220009e007800808f500011
:10393c0005003a00ae0090001e00900076000700d3
:10394c000040780050edb700000320009e00780086
:10395c00808f500005003a00ae0090001e009000d1
:10396c006d0007000040780058edb70010032000f0
:10397c009e007800808f500005003a00ae00900049
:10398c001e009000640007000040780059edb7005d
:10399c00200320009e007800808f500005003a0024
:1039ac00ae0090001e0090005b0007000040780005
:1039bc005aedb700300320009e007800808f500035
:1039cc0005003a00ae0090001e0090005200070067
:1039dc00004078005bedb700400320009e007800ab
:1039ec00808f500005003a00ae0090001e00900041
:1039fc0049000700004078005cedb7005003200040
:103a0c009e007800808f500005003a00ae009000b8
:103a1c001e00900040000700004078005dedb700ec
:103a2c00600320009e007800808f500005003a0053
:103a3c00ae0090001e009000370007000040780098
:103a4c005eedb700700320009e007800808f500060
:103a5c0005003a00ae0090001e0090002e000700fa
:103a6c00004078005fedb700800320009e007800d6
:103a7c00808f500005003a00ae0090001e009000b0
:103a8c00250007000040780060edb700900320008f
:103a9c009e007800808f500005003a00ae00900028
:103aac001e0090001c0007000040780061edb7007c
:103abc00a00320009e007800808f500005003a0083
:103acc00ae0090001e00900013000700004078002c
:103adc0062edb700b00320009e007800808f50008c
:103aec0005003a00ae0090001e0090000a0007008e
:103afc000040780063edb7000080200051052000e5
:103b0c00b1468800a10a2000b146880000688800f0
:103b1c000080fa00000006000400fa00000f780094
:103b2c0011079800c0e120009e007800808f5000a3
:103b3c0050003a001e0090000000e00002003a0025
:103b4c0000022000cc0037001e009000e10f500056
:103b5c0002003a0010022000c70037001e0090003f
:103b6c00e20f500002003a0020022000c200370091
:103b7c001e009000e30f500002003a0030022000bb
:103b8c00bd0037001e009000e40f500002003a0008
:103b9c0040022000b80037001e009000e50f5000d6
:103bac0002003a0050022000b30037001e009000c3
:103bbc00e60f500002003a0060022000ae00370011
:103bcc001e009000e70f500002003a007002200027
:103bdc00a90037001e009000e80f500002003a00c8
:103bec0080022000a40037001e009000e90f500056
:103bfc0002003a00900220009f0037001e00900047
:103c0c00ea0f500002003a00a00220009a00370090
:103c1c001e009000eb0f500002003a00b002200092
:103c2c00950037001e009000ec0f500002003a0087
:103c3c00c0022000900037001e009000ed0f5000d5
:103c4c0002003a00d00220008b0037001e009000ca
:103c5c00ee0f500002003a00e00220008600370010
:103c6c001e009000ef0f500002003a00f0022000fe
:103c7c008100370080e320009e007800808f500088
:103c8c0050003a001e0090000000e00002003a00d4
:103c9c0000032000780037001e009000e10f500058
:103cac0002003a0010032000730037001e00900041
:103cbc00e20f500002003a00200320006e00370093
:103ccc001e009000e30f500002003a003003200069
:103cdc00690037001e009000e40f500002003a000b
:103cec0040032000640037001e009000e50f5000d8
:103cfc0002003a00500320005f0037001e009000c5
:103d0c00e60f500002003a00600320005a00370012
:103d1c001e009000e70f500002003a0070032000d4
:103d2c00550037001e009000e80f500002003a00ca
:103d3c0080032000500037001e009000e90f500057
:103d4c0002003a00900320004b0037001e00900048
:103d5c00ea0f500002003a00a00320004600370092
:103d6c001e009000eb0f500002003a00b003200040
:103d7c00410037001e009000ec0f500002003a008a
:103d8c00c00320003c0037001e009000ed0f5000d7
:103d9c0002003a00d0032000370037001e009000cc
:103dac00ee0f500002003a00e00320003200370012
:103dbc001e009000ef0f500002003a00f0032000ac
:103dcc002d00370040e520009e007800808f5000c9
:103ddc0028003a001e0090000000e00002003a00ab
:103dec0000042000240037001e009000e10f50005a
:103dfc0002003a00100420001f0037001e00900043
:103e0c00e20f500002003a00200420001a00370094
:103e1c001e009000e30f500002003a003004200016
:103e2c00150037001e009000e40f500002003a000d
:103e3c0040042000100037001e009000e50f5000d9
:103e4c0002003a00500420000b0037001e009000c6
:103e5c00e60f500002003a00600420000600370014
:103e6c001e009000e70f500002003a007004200082
:103e7c00010037000000eb000080fa000000060093
:103e8c000000fa008700070074be2f0095f32b008a
:103e9c0062b12f00b3e02300801021008f010700d6
:103eac00f100200040e520002b01070081002000dc
:103ebc0080e3200028010700f200200081e32000ad
:103ecc00f00120000bfd0700e200200081e3200040
:103edc0010002000cefb07007100200080e32000c2
:103eec00380107007100200080e320002801070042
:103efc0019000700a200070044000700010037006a
:103f0c000000000004d0bf000004e000fcff320001
:103f1c00108080008000780080102100880107004c
:103f2c00808880009188800040f3070000007800b2
:103f3c00801f7800a0702900801f7800800021006d
:103f4c0027f40700e4875700800021007f0007005a
:103f5c000470ef00ebff37000000fa0051588000ae
:103f6c00f0ff23000080600050588800415880000a
:103f7c00f0ff21000080600040588800215880002c
:103f8c0000f82f0000806000205888001158800035
:103f9c0000062000010070001058880002eba900f8
:103fac0013cba9008000eb0090210a00060b000047
:103fbc000d48a9002d48a80021eba80001eba80092
:103fcc0011608000f00f2f000080600010608800ee
:103fdc0000eca80000000000016080000000280038
:103fec00008060000000e000fbff32000aeba8003c
:103ffc00715c8000f00f2e00008060000080a0003b
:10400c00705c88000080fa00000006000000fa00d6
:10401c00d0118000d0118800d011800000b0a00019
:10402c00d0118800d030200000128800c011800010
:10403c00c0118800d0118000d0118800d0118000f0
:10404c00d0118800d0118000d0118800f0118000b0
:10405c00f0118800f0118000f01188000188a9008f
:10406c00304280003000b300304288003042800083
:10407c003000b300304288000041800000c0a00036
:10408c00004188000041800000b0a0000041880081
:10409c0039e2a80038a2a8003882a8000080fa00f3
:1040ac00000006000000fa00317c800000fc2f00ac
:1040bc00008060000000a000307c8800410b2000d4
:1040cc00b0210a00880f0000517c8000f0f82f000e
:1040dc00008060000060a000507c8800517c800053
:1040ec0080ff2f00008060000000a000507c880042
:1040fc001200200080072000a109200053f82000a6
:10410c00804978008149780082497800207c8000c1
:10411c00000178000200a00060042000710520005e
:10412c0043f8200080497800814978008249780062
:10413c0000000000207c8000610060000000e000b6
:10414c00fcff3a000080fa00000006000200fa00b2
:10415c00000f78009e00780031808800308080004d
:10416c00104078000080fb004012880030808000f6
:10417c000000e800308088000080fa000000060093
:10418c000000fa000421ef00f00a2000400888002b
:10419c000003280000088800004080000010a100e7
:1041ac0000408800014280000003200001007000e4
:1041bc0000428800004180000010a00000418800ef
:0841cc000080fa00000006006b
:020000040000fa
:1041d4000810000010010000800000000010000022
:1041e4000800000080000000c21100001a00000056
:1041f40082000000686a6c00747a4c0000000100c0
:10420400000200000400080000100000000020006c
:104214002b2d23003000000018110000880000003e
:104224008200000001000000003e11003f113e002a
:10423400113e11003e113e00112e1100000000003d
:10424400000000000000000000000000000000006a
:1042540000000000000000000002080001016600e8
:10426400116711006611660011661100661156008f
:104274001100000000000000000000000000000029
:104284000000000000000000000000000000020028
:10429400080202008e118f00118e11008e118e0003
:1042a400118e11007e1100000000000000000000cb
:1042b40000000000000000000000000000000000fa
:1042c40000000000181140001168110000000000f7
:1042d400000000000000000000000000a011000029
:1042e40022000000820000003031320033343500f7
:1042f4003637380039414200434445004600300017
:1043040031323300343536003738390061626300a6
:104314006465660000000000e01100000200000077
:1043240080000000e2110000020000008200000092
:1043340004000000dc110000040000008000000004
:10434400e4110000020000008200000001000000ef
:10435400e6110000020000008000000000000000e0
:020000040000fa
:104364000400fa00000f7800110798001e0078007e
:10437400900090001e009000120020000010dd004c
:104384000080ea00808060001e0078001100980020
:104394000080fa00000006000400fa00000f780014
:1043a400110798001e007800900090001e009000f5
:1043b400120020000010dd00810070001e00780053
:1043c400110098000080fa00000006000400fa00c2
:1043d400000f7800110798001e007800b0009000cc
:1043e4001e009000120020000010dd00810070000b
:1043f4001e007800310098000080fa0000000600da
:104404000400fa00000f7800110798001e007800dd
:10441400b00090001e009000120020000010dd008b
:10442400808068001e007800310098000080fa0047
:10443400000006000400fa00000f7800110798003d
:104444001e007800b00090001e00900012002000b2
:104454000010dd00810070001e007800310098001b
:104464000080fa00000006000400fa00000f780043
:10447400110798001e007800b00090001e00900004
:10448400120020000010dd000080ea00808060003f
:104494001e007800310098000080fa000000060039
:1044a4000600fa0010079800210798001e009000eb
:1044b400a0009000010f78002e0090001100200051
:1044c4000008dd001e00600000f0a7000000ea0004
:1044d4000000ea004f00de00004078000080fa008f
:1044e400000006000a00fa00000f78001207980086
:1044f4002307980034079800450798001e007800a9
:104504001e019000ae0190000288be001e007800db
:104514003e019000ce0190002200980033009800e4
:104524001e0178006000b8006001980071019800d5
:104534001e0178006000b800400198005101980005
:104544000080fa00000006000400fa00889fbe0004
:10455400000f7800110798001e0078001004be00b8
:104564001e0090008000eb00d3f107000001be00a4
:104574000800be0025f207000004be001e007800fb
:104584001002be001e007800f00090006000900051
:104594000001be000400be001cf207000001be00c2
:1045a4000800be0046f107000004be001e007800ab
:1045b40020029000b00290001e007800d00090000d
:1045c400400090000001be000400be000ff207008e
:1045d4000001be000800be0038f107001e0178008b
:1045e40040019800510198001e0090008000eb00eb
:1045f400b1f107001e017800600198007101980074
:104604001e007800d0009000400090004f04be00cf
:084614000080fa00000006001e
:020000040000fa
:04461c00ffffff009d
:020000040000fa
:02000004000af0
:04fe0000ffffff0001
:020000040000fa
:02000004000af0
:04fe2000ffffff00e1
:020000040000fa
:02000004000af0
:04fe300078ffff0058
:020000040000fa
:02000004000af0
:04fe38007dffff004b
:020000040000fa
:02000004000af0
:04fe4000ffffff00c1
:020000040000fa
:02000004000af0
:04fe4800ffffff00b9
:020000040000fa
:02000004000af0
:04fe5000deffff00d2
:020000040000fa
:02000004000af0
:04fe5800ffffff00a9
:020000040000fa
:02000004000af0
:04fe6000ffffff00a1
:020000040000fa
:02000004000af0
:04fe6800ffffff0099
:020000040000fa
:02000004000af0
:04fe7000ffffff0091
:020000040000fa
:02000004000af0
:04fe7800ffffff0089
:020000040000fa
:02000004000af0
:04fe8000fffcff0084
:020000040000fa
:02000004000af0
:04fe8800ffffff0079
:020000040000fa
:02000004000af0
:04fe9000ffffff0071
:020000040000fa
:02000004000af0
:04fe9800ffffff0069
:020000040000fa
:02000004000af0
:04fea000ffffff0061
:020000040000fa
:02000004000af0
:04fea800ffffff0059
:020000040000fa
:02000004000af0
:04feb000ffffff0051
:020000040000fa
:02000004000af0
:04fec000ffffff0041
:020000040000fa
:02000004000af0
:04fed000ffffff0031
:020000040000fa
:02000004000af0
:04fee000ffffff0021
:020000040000fa
:02000004000af0
:04fef000ffffff0011
:020000040000fa
:02000004000af0
:04ff0000ffffff0000
:020000040000fa
:02000004000af0
:04ff0800bfffff0038
:020000040000fa
:02000004000af0
:04ff1000f4d3ff0027
:020000040000fa
:02000004000af0
:04ff1800ffffff00e8
:020000040000fa
:02000004000af0
:04ff2000feffff00e1
:020000040000fa
:02000004000af0
:04ff2800ffffff00d8
:020000040000fa
:02000004000af0
:04ff3000ffffff00d0
:020000040000fa
:02000004000af0
:04ff3800ffffff00c8
:020000040000fa
:02000004000af0
:04ff4000ffffff00c0
:020000040000fa
:02000004000af0
:04ff4800ffffff00b8
:020000040000fa
:02000004000af0
:04ff5000ffffff00b0
:020000040000fa
:02000004000af0
:04ff5800ffffff00a8
:020000040000fa
:02000004000af0
:04fff800ffffff0008
:00000001FF
